:020000040800F2
:100000006806002099010008A1010008A30100086A
:10001000A5010008A7010008A901000800000000D0
:10002000000000000000000000000000AB0100081C
:10003000AD01000800000000AF01000881030008C6
:10004000B3010008B3010008B3010008B3010008C0
:10005000B3010008B3010008B3010008B3010008B0
:10006000B3010008B3010008B3010008B3010008A0
:10007000B3010008B3010008B3010008B301000890
:10008000B3010008B3010008B3010008B301000880
:10009000B3010008B3010008B3010008B301000870
:1000A000B3010008B3010008B3010008B301000860
:1000B000B3010008B3010008B3010008B301000850
:1000C000B3010008B3010008B3010008B301000840
:1000D000B3010008B3010008B3010008B301000830
:1000E000B3010008B3010008B301000800F002F8F2
:1000F00000F042F814A696E8000CB244B344DA4586
:1001000001D100F039F8BAE80F000FA696E83000E8
:10011000A5EB040504EB0607AAEB0704A7F101070A
:100120004FEA15154FEA3414A4F10104AC4201D38F
:1001300000F022F813F0010F18BFFB1A43F001037F
:1001400000F001F8DBE71847E0040000F0040000CD
:10015000704700000023002400250026103A28BF25
:1001600078C1FBD8520728BF30C148BF0B60704729
:100170001FB51FBD10B510BD00F031F81146FFF7D7
:10018000F7FF00F029FA00F04FF803B4FFF7F2FF91
:1001900003BC00F057F800000948804709480047B1
:1001A000FEE7FEE7FEE7FEE7FEE7FEE7FEE7FEE727
:1001B000FEE7FEE704480549054A064B7047000084
:1001C000CD030008ED00000868000020680600204C
:1001D000680200206802002070477047704775462B
:1001E00000F02CF8AE4605006946534620F00700A3
:1001F000854618B020B5FFF7DDFFBDE820404FF081
:1002000000064FF000074FF000084FF0000BAC461F
:10021000ACE8C009ACE8C009ACE8C009ACE8C0096A
:1002200021F007018D46704710B50446AFF30080FA
:100230002046BDE81040FFF7A8BF00000048704707
:100240000000002001491820ABBEFEE72600020096
:100250007047000080B500F001F880BD84B0002038
:100260000390029041F20001C4F20201086840F4D8
:1002700080300860FFE741F20000C4F2020000682D
:1002800000F400300290039801300390FFE70299D8
:100290000020019039B9FFE70398B0F5A06018BFBE
:1002A00001200190FFE70198C0070028E3D1FFE794
:1002B00041F20000C4F2020000688003002803D568
:1002C000FFE70120029002E000200290FFE7029881
:1002D000012851D1FFE742F20001C4F2020108688F
:1002E00040F010000860086820F007000860086807
:1002F00040F00200086041F20401C4F202010091E2
:100300000868086008680860086840F48060086051
:10031000086820F47C100860086840F4E810086061
:1003200041F20001C4F20201086840F080700860E8
:10033000FFE741F20000C4F20200006880010028DB
:1003400001D4FFE7F5E741F20401C4F202010868B5
:1003500020F003000860086840F002000860FFE732
:1003600041F20400C4F20200006800F00C0008280A
:1003700001D0FFE7F4E700E0FFE704B070470000BA
:1003800080B582B040F26000C2F200000078C00781
:1003900068B9FFE703200D210122019200F04AF81D
:1003A000019840F26001C2F2000108700CE00320E5
:1003B0000D210022009200F03DF8009840F260010B
:1003C000C2F200010870FFE702B080BD80B541F2C3
:1003D0000002C4F20202106840F00100106041F215
:1003E0000401C4F2020108680023CFF6FF0318409D
:1003F000086010684FF6FF73CFF6F6631840106080
:10040000106820F480201060086820F4FE00086066
:1004100041F20801C4F202014FF41F000860FFF727
:1004200019FF4EF60851CEF200014FF0006008604F
:1004300080BD000084B0ADF80E00ADF80C10ADF832
:100440000A2003200090BDF80E00012809D1FFE723
:10045000009940F60000C4F2010000EB8100019019
:100460001DE0BDF80E00022809D1FFE7009940F613
:100470000040C4F2010000EB810001900EE0BDF8E5
:100480000E00032809D1FFE7009941F20000C4F2F1
:10049000010000EB81000190FFE7FFE7FFE7BDF8F7
:1004A0000A0050B1FFE7BDF80C10012000FA01F27C
:1004B000019908681043086009E0BDF80C1001209C
:1004C00000FA01F20199086890430860FFE704B060
:1004D0007047000084B0ADF80E00ADF80C10ADF818
:1004E0000A20ADF80830BDF80C00ADF8020000207D
:1004F000ADF80000BDF80C00082809DBFFE7BDF8E7
:1005000002000838ADF802000120ADF80000FFE756
:10051000BDF80E00012812D1FFE741F21801C4F224
:100520000201086840F004000860BDF8001040F6C1
:100530000000C4F2010000EB810001902FE0BDF843
:100540000E00022812D1FFE741F21801C4F20201A5
:10055000086840F008000860BDF8001040F6004050
:10056000C4F2010000EB8100019017E0BDF80E001D
:10057000032812D1FFE741F21801C4F20201086812
:1005800040F010000860BDF8001041F20000C4F215
:10059000010000EB81000190FFE7FFE7FFE7BDF8F6
:1005A000020081000F2000FA01F2019908689043CF
:1005B0000860BDF80A00BDF802108A009040BDF83E
:1005C00008100232914040EA010201990868104384
:1005D000086004B07047000080B582B0002200922D
:1005E0000192012002231146FFF774FF009B0D21A9
:1005F00003221046FFF76EFF009872B64EF210010C
:10060000CEF2000108604EF21403CEF200036FF048
:100610007F421A604EF21802CEF2000210600720EC
:10062000086062B6FFE7FEE7380600080000002019
:080630006806000054010008F7
:04000005080000ED02
:00000001FF
