:020000040800F2
:100000006006002099010008A1010008A301000872
:10001000A5010008A7010008A901000800000000D0
:10002000000000000000000000000000AB0100081C
:10003000AD01000800000000AF010008B101000898
:10004000B3010008B3010008B3010008B3010008C0
:10005000B3010008B3010008B3010008B3010008B0
:10006000B3010008B3010008B3010008B3010008A0
:10007000B3010008B3010008B3010008B301000890
:10008000B3010008B3010008B3010008B301000880
:10009000B3010008B3010008B3010008B301000870
:1000A000B3010008B3010008B3010008B301000860
:1000B000B3010008B3010008B3010008B301000850
:1000C000B3010008B3010008B3010008B301000840
:1000D000B3010008B3010008B3010008B301000830
:1000E000B3010008B3010008B301000800F002F8F2
:1000F00000F042F814A696E8000CB244B344DA4586
:1001000001D100F039F8BAE80F000FA696E83000E8
:10011000A5EB040504EB0607AAEB0704A7F101070A
:100120004FEA15154FEA3414A4F10104AC4201D38F
:1001300000F022F813F0010F18BFFB1A43F001037F
:1001400000F001F8DBE71847880200009802000081
:10015000704700000023002400250026103A28BF25
:1001600078C1FBD8520728BF30C148BF0B60704729
:100170001FB51FBD10B510BD00F031F81146FFF7D7
:10018000F7FF00F0EFF800F04FF803B4FFF7F2FFCD
:1001900003BC00F057F800000948804709480047B1
:1001A000FEE7FEE7FEE7FEE7FEE7FEE7FEE7FEE727
:1001B000FEE7FEE704480549054A064B7047000084
:1001C00055020008ED0000086000002060060020D5
:1001D000600200206002002070477047704775463B
:1001E00000F02CF8AE4605006946534620F00700A3
:1001F000854618B020B5FFF7DDFFBDE820404FF081
:1002000000064FF000074FF000084FF0000BAC461F
:10021000ACE8C009ACE8C009ACE8C009ACE8C0096A
:1002200021F007018D46704710B50446AFF30080FA
:100230002046BDE81040FFF7A8BF00000048704707
:100240000000002001491820ABBEFEE72600020096
:100250007047000082B041F20400C4F2020050F87E
:10026000041C002241F0010140F8041C0168CFF693
:10027000FF021140016050F8041C4FF6FF72CFF6E8
:10028000F662114040F8041C50F8041C21F480214F
:1002900040F8041C016821F4FE0101604FF41F01C5
:1002A000416000210191009150F8041C41F480311B
:1002B00040F8041C50F8041C01F40031009101992D
:1002C00001310191009919B90199B1F5A06FF1D1EE
:1002D00050F8041C890354BF0021012100910099AA
:1002E000012936D142F20001C4F202010A6842F04B
:1002F00010020A600A6822F007020A600A6842F0E7
:1003000002020A600168016001680160016841F44D
:1003100080610160016821F47C110160016841F491
:10032000E811016050F8041C41F0807140F8041C91
:1003300050F8041C8901FBD5016821F0030101601C
:10034000016841F002010160016801F00C01082917
:10035000FAD14EF60850CEF200004FF00061016075
:1003600002B0704782B041F21801C4F202010A687B
:1003700040F6044042F00802C4F201000A6001683D
:1003800021F470210160026842F2A05142F440322F
:10039000C0F2260102600022C36843F48053C360A8
:1003A000009200BF009B8B4204D2009B013300935C
:1003B000F8E700BFC36843F08053C360019200BFF9
:1003C000019B8B42E8D2019B01330193F8E70000C7
:1003D000E00300080000002060060000540100084F
:04000005080000ED02
:00000001FF
